:100000005CC5000080C500007EC500007CC5000006
:100010007AC5000078C5000091C6000074C50000D4
:1000200072C50000AEC600006EC500006CC50000C1
:100030006AC5000068C5000066C5000064C5000010
:1000400062C5000060C500005EC500005CC5000020
:100050005AC5000000000000000000000000000081
:10006000000000000000000000001FCC000C000099
:1000700000000000000008003000600008003000B0
:1000800060000000022003FC1E20022003FC1E2052
:100090000220000000000E1811043FFF10840C78AD
:1000A000000000000F0010840F3800C0077818848B
:1000B0000078000000780F8410C411240E9800E42A
:1000C00000840008080068007000000000000000C4
:1000D0000000000000000000000007E018182004E5
:1000E00040020000000040022004181807E0000051
:1000F000000000000240024001800FF00180024039
:10010000024000000080008000800FF80080008026
:10011000008000000001000D000E00000000000043
:10012000000000000000008000800080008000804F
:10013000008000800000000C000C000000000000A7
:1001400000000000000000060018006001800600AA
:1001500018002000000007F0080810041004080828
:1001600007F000000000080408041FFC000400045D
:100170000000000000000E0C101410241044118424
:100180000E0C000000000C18100411041104128859
:100190000C700000000000E00320042408241FFC71
:1001A0000024000000001F9810841104110410881E
:1001B00010700000000007F008881104110418886E
:1001C0000070000000001C00100010FC13001C0058
:1001D0001000000000000E381144108410841144F7
:1001E0000E38000000000700088C104410440888F6
:1001F00007F00000000000000000030C030C0000EA
:1002000000000000000000000001010600000000E6
:1002100000000000000000800140022004100808D7
:1002200010040000022002200220022002200220EE
:100230000220000000001004080804100220014001
:100240000080000000000E001200100C106C1080E6
:100250000F00000003E00C1813E4142417C408284E
:1002600007D000000004003C03C41C40074000E429
:10027000001C000410041FFC1104110411040E885A
:100280000070000003E00C181004100410041008A3
:100290001C10000010041FFC1004100410040808B7
:1002A00007F0000010041FFC1104110417C410040F
:1002B0000818000010041FFC1104110017C01000E2
:1002C0000800000003E00C181004100410441C780F
:1002D0000040000010041FFC108400800080108487
:1002E0001FFC10040000100410041FFC1004100474
:1002F0000000000000030001100110011FFE1000AB
:100300001000000010041FFC110403801464181C6A
:100310001004000010041FFC10040004000400047A
:10032000000C000010041FFC1F0000FC1F001FFC3D
:100330001004000010041FFC0C04030000E010185F
:100340001FFC100007F0080810041004100408082F
:1003500007F0000010041FFC108410801080108033
:100360000F00000007F0081810241024101C080AC1
:1003700007F2000010041FFC1104110011C011301D
:100380000E0C000400000E1C110410841084104494
:100390001C3800001800100010041FFC100410008E
:1003A0001800000010001FF81004000400041004DE
:1003B0001FF8100010001E0011E0001C00701380D8
:1003C0001C0010001FC0103C00E01F0000E0103CAB
:1003D0001FC000001004180C163401C001C01634F0
:1003E000180C100410001C00130400FC13041C0063
:1003F000100000000804101C1064108413041C0476
:10040000101800000000000000007FFE40024002C3
:1004100040020000000030000C0003800060001C5F
:100420000003000000004002400240027FFE000086
:1004300000000000000000002000400040004000DC
:100440002000000000010001000100010001000186
:1004500000010001000040004000200000000000FA
:100460000000000000000098012401440144014400
:1004700000FC000410001FFC008801040104008837
:1004800000700000000000700088010401040104F5
:1004900000880000000000700088010401041108B9
:1004A0001FFC0004000000F8014401440144014421
:1004B00000C800000000010401040FFC1104110435
:1004C00011001800000000D601290129012901C9E5
:1004D0000106000010041FFC00840100010001045B
:1004E00000FC000400000104190419FC00040004CD
:1004F000000000000000000300010101190119FEC5
:100500000000000010041FFC0024004001B4010C96
:10051000010400000000100410041FFC000400048B
:1005200000000000010401FC0104010001FC0104C1
:10053000010000FC010401FC008401000100010431
:1005400000FC0004000000F801040104010401049F
:1005500000F80000010101FF00850104010400888A
:100560000070000000000070008801040104010513
:1005700001FF00010104010401FC008401040100E9
:1005800001800000000000CC01240124012401248A
:100590000198000000000100010007F801040104B7
:1005A00000000000010001F800040004000401083C
:1005B00001FC0004010001800170000C00100160CA
:1005C0000180010001F0010C003001C00030010C7D
:1005D00001F0010000000104018C00740170018C25
:1005E00001040000010101810171000E0018016089
:1005F0000180010000000184010C013401440184E8
:10060000010C0000000000000000000001003EFCA2
:10061000400240020000000000000000FFFF000058
:10062000000000000000400240023EFC010000000B
:1006300000000000000060008000800040004000DA
:10064000200020000000000000000000000000006A
:10065000000000003F4000000000000000003000EB
:10066000400030004000000009000BC03D000BC0FE
:100670003D00090018C024407FE022403180000086
:10068000180024C01B000D803240018003801C40F4
:1006900027401C8007400040100060000000000060
:1006A000000000000000000000001F8020404020EB
:1006B0000000402020401F800000000009000600CC
:1006C0001F80060009000000040004003F800400B1
:1006D00004000000001000600000000000000000A6
:1006E00004000400040004000400000000000040B6
:1006F0000000000000000000002001C006003800DB
:10070000400000001F802040204020401F8000004B
:10071000000010403FC000400000000018C0214011
:1007200022402440184000001080204024402440F3
:100730001B80000002000D0011003FC001400000BE
:100740003C80244024402440238000001F8024401B
:1007500024403440038000003000200027C03800CF
:10076000200000001B802440244024401B80000007
:100770001C0022C0224022401F8000000000000018
:1007800008400000000000000000000004600000BD
:1007900000000000000004000A001100208040401A
:1007A000090009000900090009000000000040409C
:1007B000208011000A0004001800200023402400BB
:1007C000180000001F802040274029401F400000E3
:1007D000004007C039000F0001C0004020403FC06A
:1007E000244024401B8000001F80204020402040E7
:1007F0003080000020403FC0204020401F8000008B
:1008000020403FC024402E4030C0000020403FC068
:1008100024402E00300000000F00108020402240B5
:100820003380020020403FC0040004003FC020404D
:10083000204020403FC02040204000000060202099
:1008400020203FC02000200020403FC024400B005B
:1008500030C0204020403FC020400040004000C049
:100860003FC03C0003C03C003FC0000020403FC0F0
:100870000C4023003FC020001F802040204020402B
:100880001F80000020403FC02440240018000000CA
:100890001F802140214020E01FA0000020403FC0D9
:1008A0002440260019C0004018C0244024402240A3
:1008B00031800000300020403FC020403000000068
:1008C00020003F80004000403F80200020003E008C
:1008D00001C0070038002000380007C03C0007C0F6
:1008E00038000000204039C0060039C02040000018
:1008F0002000384007C0384020000000304021C0B0
:100900002640384020C00000000000007FE040206A
:1009100040200000000070000C0003800040000038
:100920000000402040207FE0000000000000200088
:100930004000200000000000001000100010001017
:100940000010001000000000400000000000000047
:10095000000002800540054003C0004020003FC069
:100960000440044003800000000003800440044071
:100970000640000000000380044024403FC00040C7
:1009800000000380054005400340000000000440D3
:100990001FC0244024402000000002E00550055004
:1009A0000650042020403FC00440040003C0004023
:1009B0000000044027C000400000000000100010AC
:1009C000041027E00000000020403FC00140070065
:1009D00004C00440204020403FC0004000400000D0
:1009E00007C0040007C0040003C00000044007C0A3
:1009F0000440040003C000400000038004400440A1
:100A000003800000041007F004500440038000003D
:100A1000000003800440045007F00010044007C0A9
:100A200002400400040000000000064005400540AC
:100A300004C00000000004001F80044000400000CB
:100A4000040007800040044007C000400400070085
:100A500004C0018006000400060001C0070001C0B8
:100A600006000000044006C0010006C0044000006B
:100A70000410071004E00180060004000000044098
:100A800005C00640044000000000000004007BE0B8
:100A900040200000000000000000FFF00000000007
:100AA000000040207BE004000000000040008000C7
:100AB0004000200020004000D60911241FBECFE5D1
:100AC000D8E0DEBFCDBF10E0A0E6B0E0E2E4F1E2A6
:100AD00002C005900D92A23CB107D9F724E0A2EC28
:100AE000B0E001C01D92A73DB207E1F715E0CDE5EA
:100AF000D5E003C02197FE0192D6CC35D107D1F7BE
:100B000095D50C949F107CCA8091C200811108C0B9
:100B100080E487B987E886B9369A81E08093C2007D
:100B2000089587B197B16770807F682B692B67B98B
:100B3000369A3499FECF84B195B108958ED08D9AAE
:100B400095980895CF93DF93CDB7DEB728970FB66A
:100B5000F894DEBF0FBECDBF95988FE99FE0019757
:100B6000F1F700C00000959A8FE295E70197F1F741
:100B700000C000009598D9D06D837E838F839887BD
:100B80008D819E81AF81B885892B8A2B8B2BA9F013
:100B90006D817E818F8198852AE330E040E050E0CE
:100BA00008D6CA01B901DAD669837A838B839C831C
:100BB00069817A818B819C8103C060E070E0CB0108
:100BC00028960FB6F894DEBF0FBECDBFDF91CF9150
:100BD00008952FEF33E0FC01318320836283039675
:100BE00093CFCF93DF9300D000D0CDB7DEB7FC0119
:100BF0006281039696DF6FEF73E0681B790B80E0EC
:100C000090E0ACD669837A838B839C8369817A81F7
:100C10008B819C8120E030EC4FE754E406D6698359
:100C20007A838B839C8369817A818B819C8120E08C
:100C300030E048EC52E424D769837A838B839C8329
:100C400069817A818B819C815DD6862F0F900F9070
:100C50000F900F90DF91CF9108958091CE00811178
:100C60000CC08E9896988EB582648EBD89B78462CA
:100C700089BF789481E08093CE000895CF93DF936D
:100C800000D000D0CDB7DEB78091CA009091CB00E4
:100C90002091C900821B9109A0E0B0E089839A836A
:100CA000AB83BC8389819A81AB81BC812091CC00CC
:100CB0003091CD00821B930BA109B1098093C30031
:100CC0009093C400A093C500B093C6000F900F90FE
:100CD0000F900F90DF91CF9108958091600088234D
:100CE00091F0813009F51092C70086B597B59093C1
:100CF000CD008093CC008EB58F7B8EBD10926000AE
:100D00001092C800089586B597B59093CB00809354
:100D1000CA008091C7008093C9008EB580648EBDE3
:100D200081E080936000AACF08956091C300709124
:100D3000C4008091C5009091C60008951F920F9243
:100D40000FB60F9211242F933F934F935F936F939E
:100D50007F938F939F93AF93BF93EF93FF93BDDFE9
:100D6000FF91EF91BF91AF919F918F917F916F9183
:100D70005F914F913F912F910F900FBE0F901F9059
:100D800018951F920F920FB60F9211248F93809196
:100D9000C7008F5F8093C7008F910F900FBE0F9099
:100DA0001F901895C2988FB9779BFECF0895B99A76
:100DB000BA9ABB9AC198C39A8FE19EE40197F1F762
:100DC00000C00000C3988FE19EE40197F1F700C0D6
:100DD0000000C39A8EEAE6DF82E0E4DF80E1E2DF32
:100DE00080E4E0DF81E8DEDF80EADCDF80ECDADF70
:100DF00086EAD8DF88EAD6DF8FE3D4DF83EDD2DF5F
:100E000080E0D0DF85EDCEDF80E8CCDF89EDCADF82
:100E100081EFC8DF8AEDC6DF82E1C4DF8BEDC2DF80
:100E200080E4C0DF80E2BEDF82E0BCDF84EABADFBC
:100E300086EAB8DF8FEAB6CF8091CF00811105C076
:100E400093D1B5DF81E08093CF000895C29A6FB946
:100E5000779BFECF0895AF92BF92DF92EF92FF9201
:100E60000F931F93CF93DF93082FD92EC82FD92F1D
:100E700010EB812F97DF82E095DF80E193DF5E0149
:100E8000E12CF12CF50161915F01802F9D2DDEDFBA
:100E9000FFEFEF1AFF0A80E8E816F10499F71F5FE9
:100EA000C058DF4F183B29F7DF91CF911F910F9169
:100EB000FF90EF90DF90BF90AF9008959C013C5F52
:100EC000FC011192CF01E217F307D1F708950F93B8
:100ED0001F93CA01613871050CF04CC041345105B3
:100EE0000CF048C0222319F19A0157FF02C0295F74
:100EF0003F4F43E0359527954A95E1F73695322FD8
:100F0000222737952795620F731FF801E60FF71F09
:100F100068E070E03BD421E030E0A90102C0440F5A
:100F2000551F8A95E2F7CA019081892B22C057FF8D
:100F300002C0495F5F4F23E0559547952A95E1F739
:100F40005695542F442757954795640F751FF80100
:100F5000E60FF71F68E070E019D421E030E0A90146
:100F600002C0440F551F8A95E2F7CA01809590810F
:100F7000892380831F910F9108952F923F924F9262
:100F80005F926F927F928F929F92AF92BF92CF9219
:100F9000DF92EF92FF920F931F93CF93DF93CDB722
:100FA000DEB729970FB6F894DEBF0FBECDBF4C0158
:100FB000F62E542E402E2052202E312C30E1239F2D
:100FC000C00111249D838C833CE0239FC001112428
:100FD0009B838A834987A12CB12C842F90E09F8327
:100FE0008E832A143B0409F449C09CE0491214C0C2
:100FF000EA81FB81EA0DFB1DEC5BF94FEE2019F055
:101000002491288703C0E491E095E8873985385F0B
:1010100039836F2C712C0FC0EC81FD81EA0DFB1D13
:10102000EC5AFF4FEE2079F384918887EFCF398116
:1010300089853817E9F09985492F50E02885860180
:1010400027FF02C021E001C020E0B301C4013FDF5F
:101050003885330F388789858F5F898790E02E81A7
:101060003F81821B930B8215930509F7F3945982F4
:101070009FEFA91AB90A29812987B3CF29960FB6FC
:10108000F894DEBF0FBECDBFDF91CF911F910F91BE
:10109000FF90EF90DF90CF90BF90AF909F908F9098
:1010A0007F906F905F904F903F902F9008952F9278
:1010B0003F924F925F926F927F928F929F92AF92E8
:1010C000BF92CF92DF92EF92FF920F931F93CF9335
:1010D000DF9300D01F92CDB7DEB74C01162FF42E50
:1010E000302EE9823601202E269480E890E02C01F3
:1010F000421851082A833B8380E490E05C01A01AE7
:10110000B108EA81FB812191FB83EA832223B1F0BC
:10111000812F90E04816590644F4F30C8F2D90E08F
:10112000A816B9060CF4F12C10E06301E980032D38
:101130004F2D612FC40121DF120DE3CF0F900F90CF
:101140000F90DF91CF911F910F91FF90EF90DF9063
:10115000CF90BF90AF909F908F907F906F905F9057
:101160004F903F902F90089580EB87BB83E58DB91A
:101170000895CF92DF92EF920F93CF93DF93FC010C
:1011800080811F928F9382E690E09F938F93C0EDB2
:10119000D0E0DF93CF93FBD485E28C8385EDC82E1E
:1011A00080E0D82EE12C0CE09E014CE06AE1C60103
:1011B0007EDF0F900F900F900F900F900F90C60151
:1011C000DF91CF910F91EF90DF90CF9044CECF92EF
:1011D000DF92EF920F93CF93DF93EC0185ED90E0D8
:1011E0006DDE85EDC82E80E0D82EE12C0CE026E6E1
:1011F00030E040E06CE0C6015ADFC6012CDECE01D3
:10120000DF91CF910F91EF90DF90CF90B2CF8F927F
:101210009F92AF92BF92CF92DF92EF920F93CF93B4
:10122000DF9300D0CDB7DEB71A821982BE016F5F9F
:101230007F4FCE010296F9D18F3F09F43DC08A81DC
:10124000282F082E000C330B3F938F9382E6882EB5
:1012500080E0982E9F928F9290EDA92E90E0B92E6B
:10126000BF92AF9294D48AE28093D40025EDC22E2F
:1012700020E0D22EE12C0CE095014CE06AE1C601A1
:1012800016DF8981282F082E000C330B3F938F9394
:101290009F928F92BF92AF927AD485E28093D400CE
:1012A000950144E26AE1C60102DFC601D4DD0FB652
:1012B000F894DEBF0FBECDBF0F900F90DF91CF919E
:1012C0000F91EF90DF90CF90BF90AF909F908F9055
:1012D0000895CF92DF92EF920F9385ED90E0EEDDCF
:1012E00085EDC82E80E0D82EE12C0CE027E730E019
:1012F00040E06AE0C601DBDE23E830E048E16AE076
:10130000C601D5DEC601A7DD0F91EF90DF90CF902B
:101310007ECFCF92DF92EF920F93FC0160817181BB
:1013200082819381EFD21F926F9382E690E09F9328
:101330008F9380ED90E09F938F9329D485EDC82EF5
:1013400080E0D82EE12C0CE020ED30E048E16AE1AD
:10135000C601ADDE0F900F900F900F900F900F9081
:10136000C6010F91EF90DF90CF9075CDCF92DF92B5
:10137000EF920F93CF93DF93EC0185ED90E09EDD2C
:1013800085EDC82E80E0D82EE12C0CE02EE830E070
:101390004CE06AE1C6018BDEC6015DDDCE01DF9166
:1013A000CF910F91EF90DF90CF90B3CF85ED90E08C
:1013B00043CDA09AA898FC01108208950F931F9323
:1013C000CF93DF938C01EA01FB01608171818281FF
:1013D000938120E030E040E851E44ED387FD0AC01D
:1013E000A898F801C081CC23D1F0E1DCF80110828B
:1013F000C0E015C08881843128F4A89A81E0F80102
:10140000808303C088818F3110F4C1E008C0A898A0
:10141000F801C081CC23C9F3CADCF80110828C2FFB
:10142000DF91CF911F910F910895FC01608381B3EB
:1014300021E030E001C0220F6A95EAF7922F9095E3
:10144000892381BB82B3282B22BB14821382128290
:1014500011820895FC0180B3208190E0022E02C029
:10146000959587950A94E2F780FD0CC08181928161
:101470000196928381832181328181E0223031057E
:10148000C4F416C080B390E002C0959587952A9564
:10149000E2F780FF0DC0838194810196948383835A
:1014A00083819481029724F0128211821482138224
:1014B00080E00895CF92DF92EF92FF920F931F93F7
:1014C000CF93DF9300D000D01F92CDB7DEB78C0151
:1014D0007B01FE01319685E0DF011D928A95E9F7D7
:1014E0008F9A979ABFEF20E782E0B150204080406A
:1014F000E1F700C000009798A7EEB3E01197F1F76D
:1015000000C00000979A8F98BAE6BA95F1F700C02C
:10151000879B02C08FEF7BC025ED2A95F1F7000075
:10152000879BF8CF85ED8A95F1F70000BE016A5FD1
:101530007F4FA1E0B0E027E030E080E049EC50E0F0
:10154000879904C041505109D9F7E4CF90E59A95A5
:10155000F1F7879B07C0AD01022E01C0440F0A942A
:10156000EAF7842B49EC50E0879B04C041505109B5
:10157000D9F7D0CF2150310908F781936E177F0733
:10158000D1F68F9A979AAFEFB0E7E2E0A150B04062
:10159000E040E1F700C0000069817A81D62EC72EB5
:1015A0006B817C8176276727762799818A81980FBE
:1015B0008B81980F2C81920F8D819813ABCF77FF81
:1015C0000EC07F7780E090E0C9D120E030E040E2BB
:1015D00051E42BD1905891D1D8016C930BC080E08D
:1015E00090E0BCD120E030E040E251E41ED185D152
:1015F000F8016083B60180E090E0B0D120E030E0F7
:1016000040E251E412D179D1D7016C9380E00F9080
:101610000F900F900F900F90DF91CF911F910F912E
:10162000FF90EF90DF90CF90089544CFCF93DF935A
:10163000CDB7DEB765970FB6F894DEBF0FBECDBF4E
:1016400061E0CE010F96C5DACE01459677DACE017C
:10165000459678DA6B877C878D879E87CE010F96BB
:10166000C0DA8C8B63E0CE010696DFDE64E0CE014B
:101670000196DBDECE0143969CDE11E023E0F22EE4
:10168000CE0145965FDA6B877C878D879E87CE017A
:101690000F96A7DA8C8BCE010196DCDE882349F009
:1016A000CE010696D7DE811104C08091D6048F5FEB
:1016B0005CC0CE010696CEDE882331F0CE010196C5
:1016C000C9DE882309F44EC08091D6046F2D52D014
:1016D0009093D5048091D504813081F018F0823048
:1016E000B9F021C080916100882321F0CE01449699
:1016F0006EDD09C0CE0144963CDD15C080916100CD
:10170000882321F0E6DD109261000DC080DD0BC062
:1017100080916100882321F0CE010B9627DEF3CF64
:10172000CE010B96F6DDAE014C5E5F4FBE01655FEC
:101730007F4FCE01439642DE95EDC92E90E0D92E23
:10174000EE24E3940CE0882319F02AE930E002C08B
:1017500020EB30E040E363E0C601A9DC85ED90E0DA
:101760007ADB8ECF8091D60481508093D60410937B
:101770006100AACF991B79E004C0991F961708F061
:10178000961B881F7A95C9F78095089597FB072EB9
:1017900016F4009406D077FD08D02DD007FC05D0B4
:1017A0003EF4909581959F4F0895709561957F4F78
:1017B0000895A1E21A2EAA1BBB1BFD010DC0AA1F92
:1017C000BB1FEE1FFF1FA217B307E407F50720F0AA
:1017D000A21BB30BE40BF50B661F771F881F991F25
:1017E0001A9469F760957095809590959B01AC016E
:1017F000BD01CF010895AA1BBB1B51E107C0AA1F61
:10180000BB1FA617B70710F0A61BB70B881F991FA1
:101810005A95A9F780959095BC01CD010895EE0FDA
:10182000FF1F0590F491E02D09940CD0EBC0E3D09C
:1018300040F0DAD030F021F45F3F19F0CCC0511104
:1018400015C1CFC0F0D098F39923C9F35523B1F354
:10185000951B550BBB27AA2762177307840738F01F
:101860009F5F5F4F220F331F441FAA1FA9F333D07E
:101870000E2E3AF0E0E830D091505040E695001C32
:10188000CAF729D0FE2F27D0660F771F881FBB1FEE
:10189000261737074807AB07B0E809F0BB0B802DC8
:1018A000BF01FF2793585F4F2AF09E3F510568F014
:1018B00092C0DCC05F3FECF3983EDCF386957795F1
:1018C0006795B795F7959F5FC9F7880F911D969516
:1018D000879597F90895E1E0660F771F881FBB1F72
:1018E000621773078407BA0720F0621B730B840B1F
:1018F000BA0BEE1F88F7E095089504D06894B111F3
:10190000B5C0089598D088F09F5790F0B92F9927C7
:10191000B751A0F0D1F0660F771F881F991F1AF0FA
:10192000BA95C9F712C0B13081F09FD0B1E00895E7
:101930009CC0672F782F8827B85F39F0B93FCCF368
:10194000869577956795B395D9F73EF490958095F0
:10195000709561957F4F8F4F9F4F0895E89409C010
:1019600097FB3EF490958095709561957F4F8F4FD2
:101970009F4F9923A9F0F92F96E9BB279395F695E8
:10198000879577956795B795F111F8CFFAF4BB0F66
:1019900011F460FF1BC06F5F7F4F8F4F9F4F16C0CA
:1019A000882311F096E911C0772321F09EE8872F54
:1019B000762F05C0662371F096E8862F70E060E010
:1019C0002AF09A95660F771F881FDAF7880F969589
:1019D000879597F9089597F99F6780E870E060E030
:1019E00008959FEF80EC089500240A9416161706B8
:1019F00018060906089500240A9412161306140600
:101A000005060895092E0394000C11F4882352F062
:101A1000BB0F40F4BF2B11F460FF04C06F5F7F4F1A
:101A20008F4F9F4F089557FD9058440F551F59F001
:101A30005F3F71F04795880F97FB991F61F09F3FBB
:101A400079F087950895121613061406551FF2CFE4
:101A50004695F1DF08C0161617061806991FF1CF34
:101A600086957105610508940895E894BB2766275B
:101A70007727CB0197F9089566D008F48FEF089582
:101A80000BD0C0CFB1DF28F0B6DF18F0952309F0F6
:101A9000A2CFA7CF1124EACFC6DFA0F3959FD1F341
:101AA000950F50E0551F629FF001729FBB27F00D0C
:101AB000B11D639FAA27F00DB11DAA1F649F662761
:101AC000B00DA11D661F829F2227B00DA11D621FB0
:101AD000739FB00DA11D621F839FA00D611D221F6A
:101AE000749F3327A00D611D231F849F600D211D4E
:101AF000822F762F6A2F11249F5750408AF0E1F0F1
:101B000088234AF0EE0FFF1FBB1F661F771F881F39
:101B100091505040A9F79E3F510570F05CCFA6CF81
:101B20005F3FECF3983EDCF3869577956795B79524
:101B3000F795E7959F5FC1F7FE2B880F911D96954E
:101B4000879597F90895990F0008550FAA0BE0E8BB
:101B5000FEEF16161706E807F907C0F0121613066F
:101B6000E407F50798F0621B730B840B950B39F4AF
:101B70000A2661F0232B242B252B21F408950A2615
:101B800009F4A140A6958FEF811D811D0895AEE057
:101B9000B0E0ECECFDE0AAC20D891E8986E08C83E2
:101BA0001A8309838FEF9FE79E838D83AE01475E83
:101BB0005F4F6F89788DCE01019608D0EF81F8854F
:101BC000E00FF11F10822E96E4E0ACC2ABE0B0E073
:101BD000EBEEFDE07DC26C017B018A01FC01178206
:101BE0001682838181FFBFC1CE0101963C01F601BF
:101BF0009381F70193FD859193FF81917F01882364
:101C000009F4ADC1853239F493FD859193FF81913B
:101C10007F01853221F4B60190E0C0D1E8CF912C4C
:101C2000212C312CFFE1F315D8F08B3279F038F408
:101C3000803279F08332A1F4232D20611DC08D32D2
:101C400061F0803369F4232D216016C0832D8260FA
:101C5000382EE32DE4603E2E2AC0F32DF8601DC01F
:101C600037FC2DC020ED280F2A3040F08E32B9F419
:101C700036FC75C1232D2064322E19C036FE06C0F5
:101C80008AE0989E200D1124922E11C0EAE02E9E2B
:101C9000200D1124222EF32DF0623F2E08C08C3629
:101CA00021F4832D8068382E02C0883641F4F70174
:101CB00093FD859193FF81917F018111B3CF982F7F
:101CC0009F7D9554933028F40C5F1F4F9FE39983B9
:101CD0000DC0833631F0833771F0833509F055C07C
:101CE00020C0F801808189830E5F1F4F8824839470
:101CF000912C530112C02801F2E04F0E511CF80143
:101D0000A080B18036FE03C0692D70E002C06FEF85
:101D10007FEFC50138D14C018201F32DFF773F2EB3
:101D200015C0280122E0420E511CF801A080B180AC
:101D300036FE03C0692D70E002C06FEF7FEFC50172
:101D400017D14C01F32DF0683F2E820133FC19C0EE
:101D5000822D90E088169906A0F4B60180E290E00A
:101D60001DD12A94F5CFF50137FC859137FE81917D
:101D70005F01B60190E012D121102A9421E0821A6D
:101D800091088114910479F7E1C0843611F0893605
:101D900039F5F80137FE07C0608171818281938136
:101DA0000C5F1F4F08C060817181072E000C880BEB
:101DB000990B0E5F1F4FF32DFF763F2E97FF09C043
:101DC00090958095709561957F4F8F4F9F4FF068EC
:101DD0003F2E2AE030E0A3011DD1882E861844C092
:101DE000853731F4232D2F7EB22E2AE030E025C036
:101DF000932D997FB92E8F36C1F018F4883579F07C
:101E0000AEC0803719F0883721F0A9C0E92FE06112
:101E1000BE2EB4FE0DC0FB2DF460BF2E09C034FEF3
:101E20000AC0292F2660B22E06C028E030E005C087
:101E300020E130E002C020E132E0F801B7FE07C047
:101E400060817181828193810C5F1F4F06C0608128
:101E5000718180E090E00E5F1F4FA301DBD0882EE0
:101E60008618FB2DFF773F2E36FE0DC0232D2E7FCB
:101E7000A22E891458F434FE0BC032FC09C0832D05
:101E80008E7EA82E05C0B82CA32C03C0B82C01C090
:101E9000B92CA4FE0FC0FE01E80DF11D8081803336
:101EA00021F49A2D997EA92E09C0A2FE06C0B394F2
:101EB000B39404C08A2D867809F0B394A3FC10C0B3
:101EC000A0FE06C0B21480F4280C922C9B180DC002
:101ED000B21458F4B60180E290E060D0B394F8CF29
:101EE000B21418F42B1802C0982C212CA4FE0FC099
:101EF000B60180E390E052D0A2FE16C0A1FC03C060
:101F000088E790E002C088E590E0B6010CC08A2D19
:101F1000867851F0A1FE02C08BE201C080E2A7FCEE
:101F20008DE2B60190E03AD0891430F4B60180E336
:101F300090E034D09A94F8CF8A94F301E80DF11D23
:101F40008081B60190E02AD08110F6CF222009F4DA
:101F50004ECEB60180E290E021D02A94F7CFF60170
:101F60008681978102C08FEF9FEF2B96E2E1CCC074
:101F7000FC010590615070400110D8F78095909554
:101F80008E0F9F1F0895FC01615070400190011059
:101F9000D8F7809590958E0F9F1F08950F931F93EC
:101FA000CF93DF93FB01238121FD03C08FEF9FEFD0
:101FB0002CC022FF16C046815781248135814217EB
:101FC000530744F4A081B1819D012F5F3F4F3183BE
:101FD00020838C93268137812F5F3F4F3783268361
:101FE00014C08B01EC01FB010084F185E02D099503
:101FF000892BE1F6D80116968D919C911797019641
:1020000017969C938E931697CE01DF91CF911F91D7
:102010000F910895FA01AA27283051F1203181F15A
:10202000E8946F936E7F6E5F7F4F8F4F9F4FAF4FE0
:10203000B1E03ED0B4E03CD0670F781F891F9A1FF3
:10204000A11D680F791F8A1F911DA11D6A0F711DA7
:10205000811D911DA11D20D009F468943F912AE0B3
:10206000269F11243019305D3193DEF6CF0108959B
:10207000462F4770405D4193B3E00FD0C9F7F6CFCC
:10208000462F4F70405D4A3318F0495D31FD405294
:10209000419302D0A9F7EACFB4E0A695979587952A
:1020A00077956795BA95C9F7009761057105089509
:1020B0009B01AC010A2E06945795479537952795B5
:1020C000BA95C9F7620F731F841F951FA01D08954D
:1020D0002F923F924F925F926F927F928F929F9238
:1020E000AF92BF92CF92DF92EF92FF920F931F9326
:1020F000CF93DF93CDB7DEB7CA1BDB0B0FB6F894D7
:10210000DEBF0FBECDBF09942A88398848885F8416
:102110006E847D848C849B84AA84B984C884DF8087
:10212000EE80FD800C811B81AA81B981CE0FD11D6B
:102130000FB6F894DEBF0FBECDBFED010895F89441
:02214000FFCFCF
:1021420001012534750077696C676F746E6F736374
:1021520020676C6562790074656D70657261747573
:1021620072610077696C676F746E6F736300706F72
:102172007A696F6D20776F647900202020202020FB
:10218200202020202020202020202020202020006D
:102192004E49534B4920504F5A494F4D20574F44B7
:0221A2005900E2
:00000001FF
