S0110000737A6B6C61726E69612E7372656344
S11300000C942A020C943C020C943C020C943C0286
S11300100C943C020C943C020C943C020C943C0264
S11300200C943C020C943C020C943C020C943C0254
S11300300C943C020C943C020C943C020C943C0244
S11300400C943C020C943C020C943C020C943C0234
S11300500C943C02000000000000000000000000BE
S1130060000000000000000000000000000000008C
S1130070000000001111009C64421C787A78EFB8EB
S113008030898C701991889CF4631E787A79EF3CDE
S113009078899EF0099188B1846312404243022416
S11300A0CCC93080099188B184671240424202244D
S11300B084C92080099289B0846512404242022496
S11300C084C920C00AB24D1CC7E596787A72022C06
S11300D084A920600AA2451467E49C707252023815
S11300E084A920300A63C530346794404242022810
S11300F084B920100667C730146F9240424202242C
S113010084992010066466301468924042430224A5
S11301108C9920100664223DB468D3787A79E2265B
S11301207889BEF00444221CE44851787A79E222AA
S113013070899EE000000000000000000000000044
S113014000000000000000000000000000000000AB
S1130150000000000000000000000000000000009B
S1130160000000000000000000000000000000008B
S1130170000000000000000000000000000000007B
S1130180000000000000000000000000000000006B
S1130190000000000000000000000000000000005B
S11301A0000000000000000000000000000000004B
S11301B0000000000000000000000000000000003B
S11301C0000000000000000000000000000000002B
S11301D0000000003FFFF0000000000000000000ED
S11301E0000000003FFFFE000000000000000000CF
S11301F0000000003FFFFF800008300000000010F6
S1130200000000003FFFF7C006DB303FFFFC00703A
S1130210007FFFF03FFFE7E00EDB303FFFFC7FFF96
S1130220F87FFFF03FFFC7F00CDB7E0018007FFF74
S1130230F87FFFF03FFF87F01CDBFE0018007FFF14
S1130240F80000F03FFF07F81CDBF03FFFFC607094
S1130250380001E03FFF87FC18DBC03FFFF8607007
S1130260380001C020C3863C06FF003018186070B7
S1130270380003C030C30C3C06FF0C301818607003
S11302803800038030430C1E0EFF6C3318D86070A6
S11302903807FF0030001C1E0E006C339BD87070B2
S11302A03807FF003800080E1CFE7C3018187FFF4A
S11302B0F807FE003800080E1CFE3C3019187FFFBA
S11302C0F807FE00380000061CFE38319B98607069
S11302D038000E003C1000860C00383399D860704A
S11302E038000E003C1000820C00380000006070E2
S11302F038000E003C1841860C7E38000000607007
S113030038FFFFF01E3841860C7E183FFFF86070FE
S113031038FFFFF01E38E38E0C7E183FFFF8607044
S113032038FFFFF01E7CE20E0C66380000187FFFD9
S1130330F8000E001FFFFE1E0C66380000187FFF39
S1130340F0000E000FFFFE0E0C66381FFFF87FFF53
S1130350F0000E000FFFFE1E0C663C1FFFF800703D
S113036000000E0007FFFE3E0C663C1000380070D3
S113037000000E0003FFFE7E0C667C000018007077
S113038000001E0001FFFEFE0CE7EE000018007FD7
S1130390F83FFE0000FFFFFE0CE7EE3FFFF8003FD2
S11303A0F83FFE00007FFFFE0CC7C63FFFF8003F8A
S11303B0F83FFC00001FFFFE0000000000000000EA
S11303C0000000000003FFFE000000000000000029
S11303D00000000000000000000000000000000019
S11303E00000000000000000000000000000000009
S11303F000000000000000000000000000000000F9
S113040000000000000000000000000000000000E8
S113041000000000000000000000000000000000D8
S113042000000000000000000000000000000000C8
S113043000000000000000000000000000000000B8
S113044000000000000000000000000000000000A8
S11304500000000011241FBECFE5D8E0DEBFCDBFF1
S113046020E0A0E6B0E001C01D92A036B207E1F79B
S11304700E943E020C941A040C940000CF93DF9364
S1130480CDB7DEB7D4500FB6F894DEBF0FBECDBFE4
S11304900E948F02CE0101960E94F002CE010196C5
S11304A07C0100E420E844E550E060E080E00E9444
S11304B05603C7010E94FC039FE72AE186E091509E
S11304C020408040E1F700C00000FFCF87B3886B75
S11304D087BBBC986C9A8DB183608DB96E9A089570
S11304E01616170654F4FC01680F791F91919FB9F1
S11304F0779BFECFE617F707C9F70895CF93DF93ED
S11305001F92CDB7DEB78983C39861E070E0CE0156
S113051001960E9470020F90DF91CF9108950E947E
S11305206602BC9ABB9ABA9AC498C29A83EC99E0C0
S11305300197F1F700C00000C29883EC99E001979D
S1130540F1F700C00000C29A8EEA0E947E0285ED97
S11305500E947E0280E80E947E0288EA0E947E0257
S11305608FE30E947E0283ED0E947E0280E00E945F
S11305707E0280E40E947E028DE80E947E0284E175
S11305800E947E0280E20E947E0280E00E947E023F
S113059081EA0E947E0288EC0E947E028AED0E941B
S11305A07E0282E10E947E0281E80E947E028FEC3C
S11305B00E947E0289ED0E947E0281EF0E947E02EB
S11305C08BED0E947E0280E40E947E0284EA0E94F7
S11305D07E0286EA0E947E028FEA0E947E020895CD
S11305E0FC019C5F1192E817F907E1F7089581383F
S11305F091050CF05AC0613471050CF056C04423C7
S113060051F1AB01772314F4495F5F4F559547953A
S113061055954795559547955695542F4427579585
S11306204795840F951FF901E80FF91F67707078DB
S1130630772334F461507109686F7F6F6F5F7F4F68
S113064081E090E002C0880F991F6A95E2F79081DB
S1130650892B80830895AB01772314F4495F5F4F9E
S11306605595479555954795559547955695542FC6
S1130670442757954795840F951FF901E80FF91FF3
S113068067707078772334F461507109686F7F6FF5
S11306906F5F7F4F81E090E002C0880F991F6A95D9
S11306A0E2F7809590818923808308952F923F9269
S11306B04F925F926F927F928F929F92AF92BF926E
S11306C0CF92DF92EF92FF920F931F93CF93DF931A
S11306D0CDB7DEB729970FB6F894DEBF0FBECDBFF6
S11306E0A22FB0E01796FD010AF43796F595E79529
S11306F0F595E795F595E795002309F464C0FA822A
S1130700E9822B836A010150202F30E019019FEF09
S1130710291A390A612C712C9F0133273D832C83BC
S1130720EB80EA94F12C3FEFE31AF30A68948824EF
S113073087F8912C262F30E03F832E83482E512CAE
S11307403B813323C9F18C819D81869D8001879DE6
S1130750100D969D100D112419861886AE80BF8049
S1130760A60CB71C8885869586958695F801E80FB2
S1130770F11DEC0DFD1D849198859770940102C0C4
S1130780359527959A95E2F7E82FF0E0E223F323D5
S1130790EF2B51F029813A8141E0B5018885998593
S11307A0840D951D0E94F702888599850196998785
S11307B088878E159F05B1F69FEF691A790A62142E
S11307C0730409F0BDCF29960FB6F894DEBF0FBEAF
S11307D0CDBFDF91CF911F910F91FF90EF90DF90EC
S11307E0CF90BF90AF909F908F907F906F905F90CD
S11307F04F903F902F900895CF93DF93EC0181E2C7
S11308000E947E0280E00E947E028FE70E947E02A8
S113081082E20E947E0280E00E947E0287E00E94C3
S11308207E02C39A60E074E0CE010E947002DF9100
S10B0830CF910895F894FFCF65
S9030000FC
